:020000040800F2
:10000000C00A0020DD0100084F1E00081F1C000868
:100010004D1E0008CD040008252300080000000044
:100020000000000000000000000000004501000882
:10003000F50400080000000089010008511E0008B6
:10004000F7010008F7010008F7010008F7010008B0
:10005000F7010008F7010008F7010008F7010008A0
:10006000F7010008F7010008F7010008F701000890
:10007000F7010008F7010008F7010008F701000880
:10008000D1040008DD040008F7010008F7010008AA
:10009000F7010008F7010008F7010008F701000860
:1000A000F7010008F7010008F7010008F701000850
:1000B000F7010008F7010008F7010008F701000840
:1000C000F7010008F7010008F7010008F701000830
:1000D000F7010008F701000819230008F7010008DC
:1000E000F7010008F7010008F7010008F701000810
:1000F000F7010008F7010008F7010008F701000800
:10010000F7010008F7010008CB1E0008F7010008FE
:100110008521000899210008D11E0008F701000878
:10012000F7010008F7010008E9040008F7010008DA
:10013000DFF80CD000F0B8F900480047BF230008F2
:10014000C00A0020224B19680868B0E8F00F80F35D
:100150000988BFF36F8F4FF0000080F311884EF0D5
:100160000D0E70470000000006480068006880F32C
:10017000088862B661B6BFF34F8FBFF36F8F00DFA1
:1001800000BF00BF08ED00E0EFF30980BFF36F8F01
:100190000F4B1A6820E9F00F106008B54FF05000BF
:1001A00080F31188BFF34F8FBFF36F8F02F02EFDE6
:1001B0004FF0000080F31188BDE808401968086816
:1001C000B0E8F00F80F30988BFF36F8F704700BF6E
:1001D00074000020EFF30580704700000648804758
:1001E00006480047FEE7FEE7FEE7FEE7FEE7FEE71C
:1001F000FEE7FEE7FEE7FEE7C91E00083101000842
:10020000D2B201E000F8012B491EFBD27047002258
:10021000F6E710B513460A4604461946FFF7F0FF05
:10022000204610BDF0B480EA0102D40F4200B2EBC8
:10023000410F02D20246084611464A0042D0C30D81
:10024000DDB2C1F3C752AD1A202D35DAC1F3160164
:1002500041F4000204B15242C5F1200602FA06F14F
:100260002A411044B3EBD05F23D0C4B1012DA0EBE1
:10027000C35009DCF0BC4FF0004202EAC352DBB2CB
:1002800000F5000000F0E1B8400000F1807000EBE4
:10029000C350A0F1807040EAD170490009E04908DC
:1002A00041EAC071A0EBC35000F50000400800EB2C
:1002B000C350F0BC00F0C0B86142012202EB410122
:1002C000001BF6E7F0BC704781F00041AAE780F020
:1002D0000040A7E780EA010210B502F000434000A9
:1002E00022D04A001FD0010E01EB1261C0F356006C
:1002F000C2F3560240F4000042F40002A0FB0220C8
:1003000000047F39140400D0401C50EA124001D48C
:100310004000491EC2B20C0604EBD010401C40083D
:10032000802A02D003E0002010BD20F00100002947
:1003300000DA0020184310BD30B480EA010202F058
:10034000004530F0004221F0004013D090B1C30DC1
:10035000D40DC2F31601C0F31600E41A41F40001F3
:1003600040F400027D34914201D3641C00E0490056
:10037000002C02DA30BC002070474FF4000000234C
:10038000914201D3891A034340084FEA4101F7D152
:1003900051B1914202D14FF0004105E002D24FF03D
:1003A000010101E06FF0010103EBC450284430BCAF
:1003B00000F042B8420005D0C0F3C7525242914209
:1003C00001DC0020704700EBC1507047C10F80EA8C
:1003D000E0700844CA079623002100F036B800F008
:1003E000004220F00040C10DC0F3160040F40000B0
:1003F0007F2901DA00207047962903DCC1F19601BC
:10040000C84001E096398840002AF4D04042704745
:10041000002801DBC0F10040002901DBC1F10041EF
:1004200081427047002801DBC0F10040002901DB58
:10043000C1F10041884270470029A8BF7047401CA5
:10044000490008BF20F00100704710B4B0FA80FCEA
:1004500000FA0CF050EA010404BF10BC704749B127
:10046000CCF1200421FA04F411FA0CF118BF012197
:1004700021430843A3EB0C01CB1D4FEA00614FEA77
:10048000102042BF002010BC704700EBC350104446
:100490000029A4BF10BC7047401C490008BF20F0D1
:1004A000010010BC70470000064C074D06E0E068F4
:1004B00040F0010394E8070098471034AC42F6D3AB
:1004C000FFF73AFE002F0008202F0008FEE700008B
:1004D000014800F0E1B80000D0030020014800F01E
:1004E000DBB8000014040020014800F0D5B800007B
:1004F0008C0300207047000010B50549FFF7EAFEA5
:100500000449FFF7E7FEBDE810400349FFF714BFB9
:10051000DA0F4940B81E853D3333D34172B6FEE74A
:1005200010B590F821100022022905D00421816322
:1005300080F82020012010BD01680B6823F00E0315
:100540000B6001680B6823F001030B6090F84030EA
:10055000C46B012101FA03F3636080F8211080F875
:100560002020104610BD00002DE9F05F90F821100A
:100570000024022903D004218163012485E001685D
:100580000A6822F00E020A6001680A6822F001027D
:100590000A603F4E3E4FB215DFF8F4C0DFF8F0902E
:1005A000DFF8ECA0DFF8E8B0DFF8E4E00168783FBE
:1005B00013011502ACF1640CA9F15009AAF13C0A2F
:1005C000ABF1280BAEF1140E4FF48018B14227D9CD
:1005D000B9420ED0614512D049451DD0514518D0C1
:1005E000594518D0714501D1424615E0294EB14216
:1005F00001D1012210E0274E1436B14201D1102260
:100600000AE0244E2836B14206D0224A3C329142BA
:1006100001D11A4600E02A461E49091F0A602BE054
:10062000B94213D0614517D0494522D051451DD05C
:1006300059451DD0714501D142461AE0B14202D15F
:100640004FF0807215E0134EB14201D1012210E04B
:10065000104E1436B14201D110220AE00D4E283658
:10066000B14206D00B4A3C32914201D11A4600E019
:100670002A46074980394A60012180F8211000216B
:1006800080F82010416B01B188472046BDE8F09FFB
:1006900080000240080402402DE9F05FC16B0A6847
:1006A00001680B68046C4FF0040808FA04F8844DE4
:1006B000844E854FDFF814C2DFF81492DFF814A2DD
:1006C000DFF814B2DFF814E218EA020F65D05FEA2F
:1006D000437862D50A68920603D40A6822F00402BD
:1006E0000A60DFF8F0814FF48062016808F11408B5
:1006F00013011402414524D9A9420DD0B1420FD0B3
:10070000B9421AD0614515D0494515D0514501D19E
:10071000120312E0594501D104220EE0714501D1C6
:1007200040220AE06D4D1435A94206D06B4A2832AA
:10073000914201D11A4600E022466749091F0A602A
:1007400029E0A94213D0B14215D0B94220D0614569
:100750001BD049451BD0514502D14FF4800217E010
:10076000414502D14FF0806212E0594501D1042287
:100770000EE0714501D140220AE0584D1435A942DE
:1007800006D0564A2832914201D11A4600E022464C
:100790004B4908394A60C16A71E04FF0020808FA13
:1007A00004F818EA020F70D05FEA83786DD50A6802
:1007B000920606D40A6822F00A020A60012180F833
:1007C0002110DFF810814FF40072016808F114085D
:1007D00013011402414524D9A9420DD0B1420FD0D2
:1007E000B9421AD0614515D0494515D0514501D1BE
:1007F000120312E0594501D102220EE0714501D1E8
:1008000020220AE0354D1435A94206D0334A283259
:10081000914201D11A4600E022462F49091F0A6081
:1008200029E0A94213D0B14215D0B94220D0614588
:100830001BD049451BD0514502D14FF4001217E09F
:10084000414502D14FF0007212E0594501D1022218
:100850000EE0714501D120220AE0204D1435A94255
:1008600006D01E4A2832914201D11A4600E02246A3
:10087000134908394A60002180F82010816A002954
:100880001CD0BDE8F05F0847FFE70825A5401542EA
:1008900014D01A0712D50A6822F00E020A6090F8E6
:1008A0004020C36B012101FA02F25A60816380F893
:1008B0002110002180F82010016BE0E7BDE8F09FD7
:1008C000080002401C000240300002404400024088
:1008D000580002406C000240080402401C04024020
:1008E00070B5044600F010F90546601C02D00448BB
:1008F0000078044400F008F9401BA042FAD370BD10
:10090000000000202DE9F84FDFF8C8910024A9F17C
:10091000040B23460F2709F1040AABF1040ED1E0C2
:100920000125A54006EA0502AA4276D1DFF8A8C152
:100930004E68A6EB0C0866452BD00DDC032E34D098
:1009400005DC36B3012E19D0022E2FD11BE0112E5B
:1009500016D0122E2AD119E0B8F5881F19D006DC5E
:10096000B8F5803F15D0B8F5801F1FD111E0B8F55C
:10097000001F0ED0B8F5041F18D10AE0CB6815E0AF
:10098000CB681B1D12E0CB6808330FE0CB680C333B
:100990000CE08B682BB1012B4FF0080303D04561AD
:1009A00004E0042302E0056100E00023FF2A01D8EF
:1009B000064601E000F104064FEA840501D9A5F1DD
:1009C0002005D6F8008007FA05FC28EA0C0803FA8F
:1009D00005F548EA0508C6F800804D68ED0070D5B9
:1009E0003E4DAE6946F00106AE61AD6924F00306E6
:1009F00005F0010500953A4D06EB050CDCF80850B2
:100A0000A607360F07FA06F825EA0805DFF8D480AE
:100A1000404503D14FF0000825E052E0DFF8C880E0
:100A2000404502D14FF001081DE0DFF8C08040458D
:100A300002D14FF0020816E0DFF8B480404502D141
:100A40004FF003080FE0DFF8AC80404502D14FF0D3
:100A5000040808E0DFF8A080404502D14FF0050807
:100A600001E04FF0060808FA06F848EA0508CCF855
:100A700008804D68D9F80060ED024D4601D5164357
:100A800000E096432E604D68DAF80060AD025546EE
:100A900001D5164300E096432E604D68DBF80060F8
:100AA000AD035D4601D5164300E096432E604D68C8
:100AB000DEF80060ED03754601D5164300E096436D
:100AC0002E60641C0A681646E2407FF429AFBDE838
:100AD000F88F0000080401400000111000100240CF
:100AE0000000014000080140000C014000100140DE
:100AF0000014014000180140001C01400AB10161CE
:100B000070470904FBE70000014880687047000057
:100B1000000000200248816802781144816070471B
:100B200000000020074810B5016841F01001016085
:100B3000032000F07BF80F2000F006F800F024F806
:100B4000002010BD0020024070B50D4D04464FF44A
:100B50007A712878B1FBF0F00A490968B1FBF0F02E
:100B600000F0C6FA48B9102C07D200222146501EC8
:100B700000F03CF800206C6070BD012070BD0000EA
:100B8000000000200C0000200F4808B5816941F0EA
:100B900001018161816901F001010091C16941F0A8
:100BA0008051C161C069002200F0805000900F2187
:100BB000901E00F01BF80548416821F0E06141F00B
:100BC0000071416008BD00000010024000000140BB
:100BD000002809DB00F01F0201219140400980003C
:100BE00000F1E020C0F8001170470000F0B40E4B97
:100BF0001B680C46C3F30223C3F10705042D00D97B
:100C00000425191D072901D2002300E0DB1E01265F
:100C100006FA05F1491E214099409E40761E164075
:100C20003143F0BC01F07FBB0CED00E0064900F061
:100C3000070208684FF6FF03184040EA0220034A03
:100C400010430860704700000CED00E00000FA055A
:100C50002DE9F0470F46050061D0434E306800F0A3
:100C60000700B84209D2306820F0070038433060EE
:100C7000306800F00700B84251D128683B4C81072A
:100C800012D5400703D5606840F4E06060602878C2
:100C9000000703D5606840F4605060606068A96830
:100CA00020F0F000084360602878C00728D068680A
:100CB000012810D02168022810D0890700292EDAD7
:100CC000616821F0030101436160FFF71DFF804669
:100CD00041F288390DE021688903EFE78901EDE7EA
:100CE000FFF712FFA0EB0801494502D90320BDE838
:100CF000F0876068696800F00C00B0EB810FEFD1FD
:100D0000306800F00700B8420BD9306820F00700C7
:100D100038433060306800F00700B84201D001204D
:100D2000E5E72878400705D56068E96820F4E060C9
:100D3000084360602878000706D56068296920F4B8
:100D4000605040EAC100606000F018F86168084A2D
:100D5000C1F30311515CC8400649086006480068A9
:100D6000FFF7F2FE0020C2E7002002400010024020
:100D70009E2E00080C000020040000200F4A51683D
:100D800001F00C00042803D0082803D00C48704759
:100D90000C4870470C48C1F38343C903C05C0AD5B3
:100DA0005168094AC1F34041921E515C054A5043C3
:100DB000B0FBF1F07047054948437047001002400E
:100DC00000127A000024F4008E2E000800093D0075
:100DD0002DE9F84F040070D02078C04DC00749D0ED
:100DE0006868C0F38100012807D06868C0F38100FB
:100DF000022809D16868C00306D52868800339D560
:100E000060680028E7D035E06068B0F5803F0BD01F
:100E100010B1B0F5A02F11D0286820F480302860E0
:100E2000286820F4802002E0286840F480302860A0
:100E3000606890B1FFF768FE06460AE0286840F453
:100E400080202860F0E700BFFFF75EFE801B64286B
:100E500073D828688003F7D50CE0FFF755FE0646E7
:100E600005E000BFFFF750FE801B6428F0D828681B
:100E70008003F7D420789A4E80074FF001094FF095
:100E8000000839D5686810F00C0F07D06868C0F307
:100E90008100022809D16868C00306D42868800749
:100EA00014D52069012808D110E02069B0B1C6F836
:100EB0000090FFF729FE074605E00AE1FFF724FE50
:100EC000C01B0228C4D828688007F7D52868616944
:100ED00020F0F80040EAC10028600DE0C6F800806C
:100EE000FFF712FE074604E0FFF70EFEC01B0228C4
:100EF00023D828688007F7D4207800072CD57948B4
:100F0000A169D9B1C0F80090FFF7FEFD074604E0E3
:100F1000FFF7FAFDC01B02280FD8686A8007F7D5D3
:100F200071484FF4FA510068B0FBF1F0009000BF37
:100F30000098411E0091FAD20EE080E0C0F80080D7
:100F4000FFF7E2FD074604E0FFF7DEFDC01B0228C5
:100F500075D8686A8007F7D42078400760D5E869BB
:100F60000027C00008D4E86940F08050E861E869D3
:100F7000012700F0805000905C480168C90513D437
:100F80000168834641F480710160FFF7BDFD824630
:100F900006E000BFFFF7B8FDA0EB0A0064284ED8BA
:100FA000DBF80000C005F5D5E06801280AD008B1DB
:100FB000052813D0286A20F001002862286A20F052
:100FC000040002E0286A40F001002862E06841F273
:100FD000883B98B1FFF798FD82460BE0286A40F005
:100FE00004002862EEE700BFFFF78EFDA0EB0A01C8
:100FF00059455AD8286A8007F6D50CE0FFF784FDDA
:10100000824605E0FFF780FDA0EB0A0159454CD868
:10101000286A8007F6D41FB1E86920F08050E861A3
:10102000E06988B36968C1F38101022944D00228CC
:10103000C6F8608004D0FFF767FD044638E034E06E
:10104000FFF762FD074604E0FFF75EFDC01B0228C4
:101050002BD828688001F7D4206AB0F5803F05D1ED
:101060006868A16820F4003008436860D4E908018A
:101070000843696821F4741108436860C6F86090F9
:10108000FFF742FD044606E025E000BFFFF73CFD08
:10109000001B022809D828688001F7D51BE000BF93
:1010A000FFF732FD001B022802D90320BDE8F88FAC
:1010B00028688001F4D40EE00128F7D06868226A1D
:1010C00000F48031914204D1616A00F470108842CA
:1010D00001D00120EAE70020E8E70000001002400C
:1010E00000004242800442420C0000200070004098
:1010F00010B5401EB0F1807F01D3012010BD4FF02C
:10110000E02460610F21601701F00DF90020A0615B
:1011100007202061002010BD7047704770B590F81F
:101120003C20012A2CD0012480F83C40022280F887
:101130003D2003685A689D6822F070060A683243B1
:101140005A60104B02689A420ED00F4B9A420BD055
:10115000B2F1804F08D00D4B9A4205D00C4B9A4209
:1011600002D00C4B9A4204D1496825F08003194300
:10117000916080F83D40002180F83C10084670BD29
:10118000022070BD002C01400034014000040040EA
:1011900000080040000C004010B5040003D094F893
:1011A0003D0010B107E0012010BD002084F83C0094
:1011B000204600F01FF8022084F83D00211D206821
:1011C00000F08CFE012084F8460084F83E0084F88C
:1011D0003F0084F8400084F8410084F8420084F81D
:1011E000430084F8440084F8450084F83D00002062
:1011F00010BD000008B501681648B1F1804F14D049
:10120000154A914219D1C16941F01001C161C0690B
:10121000002200F01000009005213620FFF7E6FCC8
:10122000BDE808403620FFF7D3BCC16941F0010199
:10123000C161C06900F0010009E0084A914207D18C
:10124000C16941F00801C161C06900F00800009067
:1012500008BD00000010024000100040000C0040DB
:1012600070B5044690F83C000025012817D00126EF
:1012700084F83C60022084F83D002068826822F0F7
:10128000770222F47F4282600868502838D00DDC53
:1012900020284FD005DC90B3102811D14AE002205D
:1012A00070BD302846D040280AD13BE060282FD0BE
:1012B00070280DD0B0F5805F03D0B0F5005F12D07C
:1012C000012584F83D60002084F83C00284670BD6C
:1012D000CB68D1E90121206800F05BFE20688168BD
:1012E00041F0770109E0CB68D1E90121206800F0E5
:1012F00050FE2068816841F480418160E1E719E097
:10130000CA684968206800F019FF5021206806E08B
:10131000CA684968206800F022FF6021206800F058
:1013200042FECEE7CA684968206800F007FF402106
:101330002068F4E7226801461046F0E770472DE97F
:10134000F04104460068C66805694FF00007A90728
:1013500013D5B10711D5F91E01610120207720684E
:1013600080698007204602D0FFF7E8FF04E000F024
:1013700002F9204600F094F92777680716D5700720
:1013800014D521686FF004000861022020772068DE
:10139000806910F4407F204602D0FFF7CFFF04E0C1
:1013A00000F0E9F8204600F07BF92777280715D5EB
:1013B000300713D521686FF00800086104202077FA
:1013C0002068C0698007204602D0FFF7B7FF04E01D
:1013D00000F0D1F8204600F063F92777E80616D52B
:1013E000F00614D521686FF01000086108202077FE
:1013F0002068C06910F4407F204602D0FFF79EFFAE
:1014000004E000F0B8F8204600F04AF92777E80732
:1014100008D0F00706D021686FF00100086120466F
:1014200000F09AF9280608D5300606D521686FF035
:10143000800008612046FFF76FFE680608D5700639
:1014400006D521686FF040000861204600F03EFAA2
:10145000A8060AD5B00608D521686FF020000861FB
:101460002046BDE8F041FFF758BEBDE8F08100001E
:1014700030B585B00021009101910291039100687F
:1014800023490224234DB0F1804F14D0224A9042C8
:101490000FD1886940F0040088618869694600F0CE
:1014A000040004900120CDE9000428460394FFF7CE
:1014B00029FA05B030BD886940F008008861886964
:1014C00000F008000490886940F004008861886991
:1014D000694600F00400049040F60840CDE900049D
:1014E0000E480394FFF70EFA4FF40040CDE90004D4
:1014F000694628460394FFF705FA0948416821F434
:10150000407141F0E06141F440714160D1E7000079
:101510000010024000080140000C0040000C014097
:101520000000014070B5044690F83C0000250128F9
:101530000FD0012084F83C006AB1042A0FD0082A99
:1015400011D00C2A13D00125002084F83C00284635
:1015500070BD022070BD206800F02EFDF4E7206809
:1015600000F05AFDF0E7206800F08CFDECE7206801
:1015700000F0BCFDE8E7704770B5044690F83C0009
:1015800000260D4601280FD0012084F83C006AB1E6
:10159000042A1DD0082A2FD00C2A3FD00126002073
:1015A00084F83C00304670BD022070BD206800F019
:1015B00003FD2068816941F008018161206881692B
:1015C00021F004018161206881692A69114311E0D9
:1015D000206800F021FD2068816941F4006181618B
:1015E0002068816921F480618161206881692A69AC
:1015F00041EA02218161D2E7206800F043FD2068C2
:10160000C16941F00801C1612068C16921F004018C
:10161000C1612068C1692A69114311E0206800F0A6
:1016200065FD2068C16941F40061C1612068C1693C
:1016300021F48061C1612068C1692A6941EA0221FF
:10164000C161ACE710B5040003D094F83D0010B1BF
:1016500007E0012010BD002084F83C00204600F087
:101660001EF8022084F83D00211D206800F036FCA1
:10167000012084F8460084F83E0084F83F0084F896
:10168000400084F8410084F8420084F8430084F864
:10169000440084F8450084F83D00002010BD7047E8
:1016A0007047000010B50446022249B104290ED04B
:1016B000082913D094F84100012816D0012010BD4C
:1016C00094F83E000128F9D184F83E200FE094F808
:1016D0003F000128F2D184F83F2008E094F8400050
:1016E0000128EBD184F8402001E084F84120012258
:1016F000206800F041FC13492068134A884201D059
:10170000904203D1436C43F4004343642068884211
:101710000DD090420BD0B0F1804F08D00B498842D9
:1017200005D00B49884202D00A49884204D1816819
:1017300001F00701062903D0016841F001010160B1
:10174000002010BD002C0140003401400004004086
:1017500000080040000C00402DE9F04100685249AB
:1017600088427CD1514801F02FF84042FEF72EFE0E
:101770004F4CA060FEF7C0FE4E4D4F4E2A463146FC
:10178000A06000F009FE0146A060002000F0EAFD24
:10179000A060201D00F0A8FFFEF721FEA4F8B40011
:1017A0004648103401F010F8FEF710FE6062FEF7B4
:1017B000A3FE2A463146606200F0EEFD01466062FB
:1017C000012000F0CFFD606204F1200000F08CFFEA
:1017D000FEF705FEA4F8A800394800F0F5FFFEF773
:1017E000F5FD2065FEF788FE2A463146206500F0AB
:1017F000D3FD01462065022000F0B4FD206504F110
:101800004C0000F071FFFEF7EAFDA4F8AC002D4893
:1018100000F0DAFF4042FEF7D9FDE067FEF76CFE0C
:101820002A463146E06700F0B7FD0146E067032035
:1018300000F098FDE06704F1780000F055FFFEF736
:10184000CEFDA4F8B00054F8080C676A256D54F872
:101850007C1FFEF7E7FC4FF0FF38414600E021E037
:10186000FEF7A8FD064629463846FEF7DBFC414652
:10187000FEF7A0FD054601463046FEF7D3FC414683
:10188000FEF798FD60640020A06431462846FEF70C
:101890001BFD0D49FEF750FDE064BDE8F041044832
:1018A00000F0F8BDBDE8F081001000406C0200209F
:1018B000F40400200AD7A33F0AD7A3BF4C0100209D
:1018C000BC000020940100203108AC3E70477047F6
:1018D00010B504460068406994F84110C0F3C01088
:1018E000212911D180B12068143050E8001F21F067
:1018F000800140E80012002AF5D1A06B08B1FEF784
:101900000FFE204600F07DFC2068406994F84210EC
:10191000C0F38010222911D180B12068143050E822
:10192000001F21F0400140E80012002AF5D1E06BD1
:1019300008B1FEF7F5FD204600F03CFC002010BD8C
:1019400070470000F8B5016804460868CA684B692A
:1019500010F00F0F4FF0000559D003F0010602F40C
:101960009077374365D0C10705D0D10503D5616CA9
:1019700041F001016164410705D5D90703D0616CCD
:1019800041F002016164810705D5D90703D0616C7C
:1019900041F004016164010707D502F020013143E1
:1019A00003D0616C41F008016164616C00293AD098
:1019B000800604D5900602D5204600F030FC206851
:1019C0004069616CC0F38010090700D460B3204601
:1019D00000F0F0FB20684069400621D520681430F3
:1019E00050E8001F21F0400140E80012002AF5D124
:1019F000E06BA8B16D494163E06BFEF7B5FD0028CF
:101A000011D0E06B416B01B0BDE8F04008478306A0
:101A10000FD593060DD52046BDE8F84000F0FFBB7A
:101A20002046FFF78DFFF8BD2046FFF789FF65646C
:101A3000F8BD266B2023012E7CD1C6067AD5D606AA
:101A400078D508684868009048694FF0020640065B
:101A500040D5E16B086840680004000CE8D0A28D16
:101A60008242E5D9E085886920282DD020680C3095
:101A700050E8001F21F4807140E80012002AF5D1DF
:101A80002068143050E8001F21F0010140E80012E6
:101A9000002AF5D12068143050E8001F21F04001E1
:101AA00040E80012002AF5D184F84230256320680E
:101AB0000C3050E8001F21F0100140E80012002A0D
:101AC000F5D1E06BFEF72CFD6663A08DE18D401A29
:101AD00081B22AE0A08DE18D401A81B2E08D00280C
:101AE000A6D00029A4D022680C3252E8000F20F4BE
:101AF000907042E80007002FF5D12068143050E8BC
:101B0000002F22F0010240E80027002FF5D184F8D1
:101B10004230256320680C3050E8002F22F010027C
:101B200040E80023002BF5D166632046FFF7CFFE87
:101B3000F8BDFFE705062BD5150629D594F8410019
:101B40002128F5D1A068B0F5805F01D12069B0B13E
:101B5000206A411C2162216800784860E08C401EA8
:101B60000004000CE084E3D12068C16821F080010A
:101B7000C1602068C16841F04001C160D8E7206AB7
:101B80000088C0F308004860206A801C2062E5E7F6
:101B90004006CDD55006CBD5CA68204622F040027B
:101BA000CA6084F8413000F039F8C1E7A521000887
:101BB00090F84230202B01D00220704721B11AB199
:101BC0000023036300F08CBB0120704700680F49BD
:101BD00088421AD10E480F4B02468188D2787F295D
:101BE00002D25A54491C81800A2A02D089B2402963
:101BF00005D3828800219954012202708180044912
:101C00000122C91C0448FFF7D3BF704700500040B1
:101C10001000002062040020FC0200207047FEE754
:101C20002DE9F04186B000242E48009401940294DE
:101C30000394816941F010018161816901F0100113
:101C40000491816941F020018161816901F02001E5
:101C50000491816941F004018161816901F004010D
:101C60000491816941F00801816180691E4F00F093
:101C700008004EF207350490002229463846FEF748
:101C80003DFFDFF8688000224FF4E6414046FEF752
:101C900035FF0095022601250396CDE901546946DA
:101CA0003846FEF72FFE10208DE831006946384691
:101CB000FEF728FE4FF4E040CDE90005CDE90246ED
:101CC00069464046FEF71EFE4FF44070009001AAA0
:101CD000112082E8510069464046FEF713FE06B027
:101CE000BDE8F0810010024000100140000C0140EE
:101CF00010B58EB000240794089409940A940B94AC
:101D00001C2168460C94FEF782FA29484FF0804166
:101D100001602321C0E901146321C0E90314846137
:101D2000FFF73AFA08B1FEF7F9FB4FF4805007903D
:101D300007A91F48FFF794FA08B1FEF7EFFB1C480C
:101D4000FFF780FC08B1FEF7E9FB0B940BA91848DC
:101D50000C94FFF7E3F908B1FEF7E0FB6020CDE952
:101D6000000402940022694611480494FFF704FC21
:101D700008B1FEF7D3FB042269460D48FFF7FCFBD0
:101D800008B1FEF7CBFB082269460948FFF7F4FBD0
:101D900008B1FEF7C3FB0C2269460548FFF7ECFBD0
:101DA00008B1FEF7BBFB0248FFF762FB0EB010BDA7
:101DB0000401002010B58EB0002407940894099403
:101DC0000A940B941C2168460C94FEF720FA1E48D6
:101DD0001C4901604721C0E9011444F61F61C0E9B4
:101DE00003148461FFF7D8F908B1FEF797FB4FF4AD
:101DF0008050079007A91448FFF732FA08B1FEF7A0
:101E00008DFB1148FFF71EFC08B1FEF787FB0B9412
:101E10000BA90D480C94FFF781F908B1FEF77EFB82
:101E20006020CDE90004029400226946064804942B
:101E3000FFF7A2FB08B1FEF771FB0348FFF718FBA1
:101E40000EB010BD000C0040DC010020FEE7FEE7F4
:101E500010B5FEF75FFE00F06BFF012803D0BDE870
:101E6000104000F001BF10BD10B590B028216846A9
:101E7000FEF7CDF914210AA8FEF7C9F901210804DB
:101E8000CDE900104200029202240491CDE90740FE
:101E90004FF4E01009906846FEF79AFF08B172B659
:101EA000FEE70F20CDE90A0400204FF48061CDE960
:101EB0000C010E9002210AA8FEF7CAFE002801D0EC
:101EC00072B6FEE710B010BD704700F0FDBD000017
:101ED0000148FFF734BA000024020020F0B5026880
:101EE000204C214D214E224F224B4FF0804CA042DE
:101EF00009D0984207D0604505D0A84203D0B0422F
:101F000001D0B84204D122F0700E4A6842EA0E02B3
:101F1000A04209D0984207D0604505D0A84203D01E
:101F2000B04201D0B84203D122F44075CA682A43B6
:101F30004D6922F080022A4302608A68C2620A6800
:101F40008262A04201D0984201D109690163012156
:101F500041610169C90703D0016921F001010161F3
:101F6000F0BD0000002C01400004004000080040CB
:101F7000000C00400034014010B501F01F030121A6
:101F8000046A99408C430462016A9A4011430162D9
:101F900010BD10B5846842EA032224F47F440A434A
:101FA0002243826010BD826822F070020A4342F030
:101FB0000701816070470000F0B5036A026A22F0F1
:101FC0000102026242688469124E24F073050C68B3
:101FD0002C4323F002058B682B430D4DA84201D002
:101FE000B04205D123F00807CB683B4323F004033C
:101FF000A84201D0B04205D14D6922F44072154388
:102000008A692A4342608461496841630362F0BD82
:10201000002C014000340140F0B5026A036A23F04D
:1020200010030362436884690D6824F4E64444EABB
:1020300005248D6822F0200242EA05120F4D104E51
:10204000A84201D0B04206D1CF6822F0800242EA15
:10205000071222F04002A84201D0B04207D14D69D8
:1020600023F4406343EA85038D6943EA85034360B3
:102070008461496881630262F0BD0000002C014068
:1020800000340140F0B5026A036A23F480730362EE
:102090004368C46922F4007224F073050C68124E80
:1020A0002C438D6842EA05220E4DA84201D0B04271
:1020B00006D1CF6822F4006242EA072222F480624D
:1020C000A84201D0B04207D14D6923F4405343EAFE
:1020D00005138D6943EA05134360C4614968C16310
:1020E0000262F0BD002C01400034014030B5046AAA
:1020F000026A22F4805202624268C3690D6823F4C6
:10210000E64343EA05238D6824F4005444EA053489
:10211000084DA84202D0084DA84204D14D6922F4CE
:10212000804242EA85124260C361496801640462E8
:1021300030BD0000002C01400034014010B5036A9E
:10214000046A24F001040462846924F0F00444EA7F
:10215000021423F00A020A438461026210BD10B522
:10216000036A046A24F010040462846923F0A00363
:1021700024F4704444EA023243EA011182610162AC
:1021800010BD000010B50348FFF7DCFBBDE81040B0
:1021900000F020BBB40200200148FFF7D3BB0000D1
:1021A000FC02002010B5406A0021C185C184FFF700
:1021B000C7FB10BD01680C3151E8002F22F490726A
:1021C00041E80023002BF5D10168143151E8002FBC
:1021D00022F0010241E80023002BF5D1016B012917
:1021E00009D101680C3151E8002F22F0100241E8BA
:1021F0000023002BF5D1202180F84210002101633B
:10220000704701680C3151E8002F22F0C00241E80C
:102210000023002BF5D1202180F84110704708B52C
:1022200090F84210222901D0022008BD82684FF4A4
:1022300080539A4201D1016921B1816A9A421BD02F
:102240004AB10AE00268816A5268C2F308020A8051
:10225000816A891C08E0026972B10268526802F062
:102260007F020A70816A491C8162C18D491E09047E
:10227000090CC18503D01BE002685268F1E70168D0
:10228000CA6822F02002CA600168CA6822F480721B
:10229000CA6001684A6922F001024A61202180F87F
:1022A000421000214163026B012A03D0FFF78EFC2C
:1022B000002008BD016301680C3151E8002F22F0B5
:1022C000100241E80023002BF5D101680A68D2060C
:1022D00002D50A6849680091818DFFF7F8FAE7E7AF
:1022E00081628285C28500214164222180F84210EA
:1022F000016921B10168CA6842F48072CA6001684C
:102300004A6942F001024A610068C16841F0200157
:10231000C1600020704700000148FFF713BB0000B8
:1023200044030020FEE70907090E002804DB00F142
:10233000E02080F80014704700F00F0000F1E0206A
:1023400080F8141D704702E008C8121F08C1002A57
:10235000FAD170477047002001E001C1121F002A26
:10236000FBD170472DE9F0410A4D04460A4655F865
:102370002460074F31461046FDF7A6FF3946FDF7AA
:10238000A9FF3146FDF74EFF45F82400BDE8F08176
:10239000CDCC4C3EE404002070B50D4614460646F4
:1023A0001146FEF73FF801D2204670BD294630465F
:1023B000FEF72EF801D2284670BD304670BDFEF7FC
:1023C000B1FBFFF751FDFFF72BFCFFF791FCFFF787
:1023D000F1FC00F099FA00F0CDFB00F0A7F800F056
:1023E00043F9FEE770B50E46254900EB8000254D08
:1023F00001EB80040021226828689AB1042A13D0D6
:10240000082A13D00164002E12DD21894FF0010249
:102410006068FEF773FB218A0022E068FEF76EFB1E
:10242000B0B21CE04163EEE78163ECE7C163EAE729
:10243000218960684FF0000209DAFEF75FFB218A0C
:102440000122E068FEF75AFB704280B207E0FEF717
:1024500055FB218A0022E068FEF750FB002021682E
:1024600031B1042907D00829296807D0086470BD54
:102470002968486370BD2968886370BDC86370BDF2
:10248000B02E000804010020002801D0FEF746B855
:102490007047000010B5040012D0D4F8C40020F03A
:1024A0000041144881420FDAD4F8C81021F00041ED
:1024B000814209DAD4F8CC1021F00041814203DADC
:1024C000BDE8104000F0F9B834F9B41F022000F064
:1024D00089F8B4F90410002000F084F8B4F9081069
:1024E000032000F07FF8B4F90C10BDE81040012083
:1024F00000F078B80AD7233C10B50446084600F02F
:10250000EBF801462046BDE8104000F06BB8000033
:1025100005480068C06A401CB0F5803F01D34FF603
:10252000FF7080B2704700000401002070B51E4D9E
:102530002878002836D100F083F80024E0B200218A
:10254000FFF750FF641C042CF8D300211748FFF755
:10255000A9F8FFF799FF04211448FFF7A3F8FFF744
:1025600093FF08211148FFF79DF8FFF78DFF0C211D
:102570000E48FFF797F8FFF787FF1E2000F018F8C6
:10258000094A002112F1020202EB81035C888442B5
:1025900000D95880491C0429F6D3012000F050F8D6
:1025A0000120287070BD00001C00002004010020E4
:1025B00000B50146642800D96421FFF7A9FF48430C
:1025C0006421B0FBF1F080B200BD10B504460846AE
:1025D00000F082F8404201B22046BDE8104000F011
:1025E00001B8000010B50346042826D2134800782D
:1025F000002822D01148801C00EB830292F90000D1
:10260000401C04D00120414304D54C4203E04FF06C
:10261000FF30F8E70C46FFF77BFF5288824200D973
:102620000246944204DD002901DA514200E01146DD
:10263000BDE810401846FFF7D5BE10BD1C000020B5
:1026400010B5044602464FF400410548FEF756FA1D
:102650002246BDE810404FF480410248FEF74EBAD2
:1026600000100140000C01401420FFF7A1FF0446B8
:102670004FF4FA6540F6B83600F01FF82846FEF72A
:102680002FF921460020FFF737FF2846FEF728F9EB
:1026900000F013F82846FEF723F921460020FFF743
:1026A00094FF2846FEF71CF900F007F83046FEF7C5
:1026B00017F9E1E70021FFF795BF10B50020FFF7FC
:1026C000F9FF0120FFF7F6FF0220FFF7F3FFBDE857
:1026D00010400320FFF7EEBFB0F5004F01D347F6DF
:1026E000FF7000B2704700002DE9F0410446006819
:1026F0002A4A20F00041914207DA00202062A060BF
:10270000E0602061A062BDE8F0816168FDF7DCFD5A
:10271000A060E668074601213046FDF74BFE3946CA
:10272000FDF7D5FD2169FDF77DFDE169FDF7D2FDDE
:1027300005463946A069FDF7CDFD8046314638464D
:10274000FDF7C2FD6169FDF7C5FD4146FDF76AFD74
:102750002946FDF767FD01461148814202DC114818
:10276000814200D90146206AFDF75CFD2062616A62
:10277000FDF758FE01D2606A2062606A216A80F02B
:102780000040FDF74FFE03D2606A80F000402062F7
:10279000E0682061A068E060206AB4E70AD7233DC2
:1027A00000004040000040C00648416B096829B164
:1027B000416BC968C9684968816270474FF0FF3151
:1027C000FAE70000740000200168486A002200B2A5
:1027D0004A62704738B5134C20680168C9061FD596
:1027E00001680025406800902046FFF771F8E06B13
:1027F00000684068C0F10B010B4801708068002838
:102800000ED06946009500F045FA0098002807D0E0
:1028100006494FF080500860BFF34F8FBFF36F8FB2
:1028200038BD0000B40200205C00002004ED00E090
:102830000348038B028A0189008800F0B1B80000C8
:102840003A000020002801D0FDF768BE7047000064
:10285000064A02EBC00042888A4201D9114603E0D1
:102860008088884200D20146084670473A0000201E
:1028700070B586B0002002901F48816941F00401C4
:102880008161816901F004010491816941F00801CD
:102890008161816901F008010491816941F01001B1
:1028A00081618069022400F0100000940194CDE958
:1028B000034069461148FEF725F8114E00222021F9
:1028C0003046FEF71BF920200125CDE900056946B9
:1028D00003943046FEF716F80A4E002201213046D6
:1028E000FEF70CF900956946304601950394FEF712
:1028F00009F806B070BD0000001002400008014059
:1029000000100140000C014070B5234CA078002855
:1029100040D104F10C052988FFF79AFF261D30806D
:1029200029890120FFF794FF7080298A0220FFF790
:102930008FFFB080298B0320FFF78AFFF080FFF71D
:1029400097FF00F069F8002205213220FEF74EF9CA
:102950003220FEF73DF911480068C16841F01901C5
:10296000C16000210D48FEF79DFEFFF76BFF64205C
:10297000FDF7B6FF04210948FEF794FEFFF762FF5A
:102980006420FDF7ADFF012525706420FDF7A8FF49
:102990006570A57070BD00002E000020DC010020D5
:1029A00070B50C4601461D461646002000F018F88A
:1029B0006420FDF795FF2146012000F011F8642006
:1029C000FDF78EFF3146022000F00AF86420FDF783
:1029D00087FF2946BDE87040032000F001B80000E1
:1029E00010B5044604280ED2FFF732FF084921F83B
:1029F0001400091F8978002905D0064924B1012C4B
:102A000001D10968886310BD0968486310BD0000E2
:102A100032000020DC01002030B587B01C21684660
:102A2000FDF7F5FB264C6020009060880025CDE97D
:102A300001050422694623480495FEF79DFDFFF732
:102A400001FF0095A0880190082269461D48FEF705
:102A500069FDFFF7F7FEE08801900C2269461948EE
:102A6000FEF760FDFFF7EEFE164801688A6942F046
:102A700008028A6101688A6942F400628A61016819
:102A8000CA6922F00802CA610168CA6922F40062B8
:102A9000CA61218802685163618802689163A188D4
:102AA0000268D163E1880268116401684D620268BE
:102AB0000121516100686FF01901016107B030BD5B
:102AC00032000020DC0100202DE9F041254C206877
:102AD0000169254DC943254EC9071CD1C168C943A9
:102AE000C90718D1891E0161214881882268D163F4
:102AF000C088216808641E4F3F1F387820B101222A
:102B000020212846FDF7FAFF787820B101221146EE
:102B10003046FDF7F3FF20680169C94309070BD46C
:102B2000C168C943090707D46FF008010161002299
:102B300020212846FDF7E2FF20680169C943C90644
:102B40000DD4C168C943C90609D46FF010010161F1
:102B50003046BDE8F04100220121FDF7CFBFBDE8BE
:102B6000F0810000DC01002000100140000C014059
:102B700032000020FFF75CBED0E9013201699A60A3
:102B8000D0E901235A604A68824201D182684A60D2
:102B9000002202610868401E0860086870474268A9
:102BA0004A6093688B60936859609160086101681E
:102BB000491C01607047000010B5FDF70BFB11497F
:102BC00010280ED300F1E02090F8F0030A7890422C
:102BD00007D2502080F31188BFF34F8FBFF36F8F60
:102BE000FEE709480068896800F4E060884207D978
:102BF000502080F31188BFF34F8FBFF36F8FFEE734
:102C000010BD0000B00000200CED00E01448016B86
:102C100011B10121C16170470021C1610169B1FA9F
:102C200081F1C1F11F0101EB81020E4951F82230FF
:102C30006BB101EB820101F108034A6852684A60F6
:102C40009A4201D152684A60D168016070475020B1
:102C500080F31188BFF34F8FBFF36F8FFEE7000043
:102C600074000020D005002010B5502080F311889A
:102C7000BFF34F8FBFF36F8F00F068F818B10449AE
:102C80004FF080500860002080F3118810BD0000D4
:102C900004ED00E070B50E46040009D0206C78B158
:102CA000502080F31188BFF34F8FBFF36F8FFEE783
:102CB000502080F31188BFF34F8FBFF36F8FFEE773
:102CC000206848B9A06838B1502080F31188BFF35C
:102CD0004F8FBFF36F8FFEE7FFF76EFF5020EFF3CC
:102CE000118580F31188BFF34F8FBFF36F8FA16BF6
:102CF000E06B884218D994F94500491CA163411C36
:102D000004D0401C84F8450001200EE0606A0028D1
:102D1000FAD004F1240000F07FF80028F4D0002E4F
:102D2000F2D001203060EFE7002085F3118870BDFC
:102D30000548416919B1006B18B1002070470120A6
:102D40007047022070470000740000202DE9F04118
:102D50002F4C0026206B28B1A069401CA061304692
:102D6000BDE8F081E5686D1CE56013D1606B00681B
:102D700038B1502080F31188BFF34F8FBFF36F8FAE
:102D8000FEE7606BA16B6163A063206A401C206258
:102D9000FFF70AFDA06ADFF87C80854209D3606BEB
:102DA0000068A0B1606BC068C7687868854211D2BE
:102DB000A0622068C06A00EB800158F82100012859
:102DC00000D90126E0690028C9D00126C7E74FF0E5
:102DD000FF30EDE7381DFFF7CFFEB86A18B107F1F5
:102DE0001800FFF7C9FEF96A0120226988401043E4
:102DF000206101EB810108EB8100391DFFF7CFFE57
:102E0000F86A2168C96A8842C9D30126C7E7000069
:102E100074000020D00500202DE9F041C068C4688E
:102E2000ACB104F118000746FFF7A6FE154D286B5C
:102E30000126A0B139461448FFF7B1FEE06A2968BF
:102E4000C96A88421CD90120EE61BDE8F08150209A
:102E500080F31188BFF34F8FBFF36F8FFEE7201D04
:102E6000FFF78AFEE16A2A6906FA01F01043286139
:102E700001EB81000449B43901EB8000211DDBE73F
:102E80000020E2E774000020840600200102020313
:102E90000405060708090A0B0C0D0E0F10100000A0
:102EA00000000000000001020304060708090000FA
:102EB0000000000000100140002000000010014050
:102EC000004000000400000000100140010000006C
:102ED00000100140020000000C000000000C014046
:102EE00000200000000C014000100000080000005D
:102EF000001001400002000000100140000100002D
:102F0000202F000800000020BC000000462300081D
:102F1000DC2F0008BC000020040A00005623000833
:102F200001000000100000000000000000127A0004
:102F30000000000000000000000000000000010090
:102F40001E0001001E0001001E0001001E00000006
:102F50000000DC05DC05DC05DC05DC057805400649
:102F60000100DC05780540060100DC057805400617
:102F70000100DC05780540060100000000000000AB
:102F80000000000000000000000000000000000041
:102F90000000000000000000000000000000000031
:102FA0000000000000000000000000000000000021
:102FB0000000000000000000000000000000000011
:102FC0000000000000000000000000000000000001
:0C2FD00000000000AAAAAAAA000000004D
:0400000508000131BD
:00000001FF
